:020000041000EA
:4000000000400208230100100D00000085010010000000000000000000000000000000000000000000000000000000008101001000000000000000008101001081010010E9
:400040008101001081010010810100108101001081010010810100108101001081010010810100108101001081010010810100108101001081010010810100108101001060
:400080008101001081010010810100108101001081010010810100108101001081010010810100108101001081010010810100108101001081010010810100108101001020
:4000C00010B5064C2378002B07D1054B002B02D0044800E000BF0123237010BD3C06000800000000402E0010084B10B5002B03D00749084800E000BF07480368002B00D1BC
:4001000010BD064B002BFBD09847F9E70000000040060008402E0010E8000008000000007047FFF7FDFF72B60F4C104DAC4209DA21686268A368043B02DBC858D050FAE73B
:400140000C34F3E70A490B4A0020521A02DD043A8850FCDC084809490860BFF34F8F00F005F900F01DF8FEE7442E00105C2E00103C060008140800080000000808ED00E08B
:40018000FEE7FEE700B504207146084202D0EFF3098001E0EFF30880043001F0B9FAFEE710B562B6014800F067F9FEE70000081010B5002001F052F910BDC04670B562491F
:4001C000E0239B00CB580F2213401A00D0329200525807210A40032A05D0042A06D0002A12D15A4814E05A4A106811E01A00C0329200554952581F210A40112A06D0132A7C
:4002000004D0FA20C00103E0524801E080200002002B36D14C4BB222D2009A5801211140B125ED005A59120F032422405B591B0F1C4207D0444C63591B0F03242340012BDC
:4002400002D102E0012300E00023002B01D0002901D1032A4BD13C4BB022D2009D58AD03AD0B3D495958C904C90C9C58240E01231C40013401F0C0FD6843210001F0BCFD02
:4002800035E0012B33D1304BC822D2009A5801251540C024E4001A59120F03210A401B591B0F194207D028490B591B0F03210B40012B02D102E0012300E00023002B01D049
:4002C000002D01D1032A12D11F4DC022D200AB587F210B40A958090A1F263140AC58240C3440584301F088FD210001F085FDE0239B00154AD3581B0903221340D840144C8E
:400300006060164B1D692D0AFC32154001351969090E013101F070FDA060290001F06CFD0500E06020610E4BC0180E4901F064FD20750D4BE818FA21890001F05DFDA061FD
:40034000C003E06170BDC0460000264000127A00C000000800366E0184050000000021403F420F0040420F00E703000010B5284801F03CFD274CB022D200A3585B005B08C3
:40038000A350E0218900635830208343635080235B04A350204A214BE250A02292010433E250FF221E4BE25001F00EFDC0225200A35801218B43A35000F0BEF9FFF7FEFE1E
:4003C000B0235B055B78002B04D0B0235B055B78DBB200E02123212B03D1124B0022DA605A60114C22008021042000F0DDFD2000103000F071FE0D4B1A685123D35C002B39
:4004000002D00B4800F0DEFE00F00CFB10BDC046882D00100000264001000200840500008C050000E00023405806000810080008701F00108023024AD35803201840704705
:400440000000214010B501F0F4F9084980228C58074B2340074C23438B508823034AD358DB06FAD501F0E9F910BDC04600002140FCFF00000100FA0570B50500830504D0FD
:40048000E821FF310F4801F015F901F0D2F90400FFF7D0FF032801D1FFF7D4FF0A4AB0239B00D55080215058084B03400848034353508823044AD358DB06FAD5200001F07E
:4004C000BCF970BDA41F001000002140FCFF00000300FA05FEE7C046F0B50025002711E0BB00C658F3B2FF22964308E06A008A181478A419527822700135013BDBB2002BE1
:40050000F4D10137022FEBD9F0BDC046014A024B1A60704701001180000E1F4170B5724A116808230B431360704C03E0012001F0B5F8013C6C4B1B695B0701D4002CF5D108
:40054000002C01D16A4B00E00023002B02D00520FFF7C0FF6748A021C900435803229343023A13434350644A116808688823CB58C31818686149084018601368186884242D
:400580001B59C01803681B021B0A0360106805680359EB1818680140196013683E229A5C002A06D05348E02189004258753CA24342503E229A5C002A06D04E48E021890033
:4005C00042583024A24342503E229B5C002B07D04849E02292008B588020000603438B500021012000F06CFF0021022000F068FF0021032000F064FF0021042000F060FF0C
:400600000021002000F05CFF3A4C3D4BE1583D4A0A4001252A43E250E1583B4A0A40E250E258802109060A43E250043BE158374A0A40E250E158364A0A40E250E258802129
:4006400009020A43E250284A1168324B0B401360002001F02FFBC0235B00E3581D4204D12D4AA3585B005B08A3500821002001F067F8214B1B683F229A5C092A06D971223B
:40068000995C6E3A8A402549986842509A687A201B5AD2181368FF210B4021490B43136015490A689468135AE3181A687E3082431A600A687323D15C703B180088407021D3
:4006C000515C7224145DA14001437120105C83400B43802109060B438021C9009068435093685B5870BDC0460000274020A1070002004A000000264010080008FF00FFFF41
:4007000004050000FEFCFFFFFFFF00FFFFF0FFFFFF8FFFFFFFFCFFFF0C050000240C000000FF691810B50A00002101F0FAFB10BD10B501F0EDFB10BD30B58FB0962100207F
:4007400000F0FEFF00F0D4FF002814D100F0C0FFC0235B004C4AD358DB0705D411004B4A8B585B005B088B504749484A8B588020000603438B50012001F034FA444A516CDA
:40078000444B0B40E82189010B435364536C1B0AFF2213403A2B07D13D4A516C3E4B0B40E82189010B435364002300223B493C4801F09EFA002300223A493B4801F098FADE
:4007C0003422002101A801F0ACFB384C01AA0021200000F02FF93422002101A801F0A1FB01AA0121200000F025F9FFF797FE304A304B1A6000240EE02F48620011194B00B7
:40080000C3189988121955002A5A588800041043FFF788FF01340B2CEED900240AE0620012199300244AD3181A6DD96C986CFFF77FFF0134112CF2D9204C210020312000CB
:400840002C30FFF749FE1E4A116806230B43136001AD24220021280001F063FB2900134800F082FA2A002300383313CB13C213CB13C213CB13C22900124800F075FAFFF7EF
:4008800045FE0FB030BDC046000026400C05000000002740FF00FFFFFFC5FFDF0F0E0040050E0000010700402A070000000032400300FA05F0012140BC1F0010BC20001040
:4008C0000079344000063240214B984230D00ED8402831D004D800281FD010282AD031E080282BD080235B00984229D02AE0194B984229D007D8A0231B0698420DD0164B38
:40090000984212D01EE0154B98420AD0144B984209D0144B984215D101E0002016E0124814E0124812E0124810E0A020C0030DE007480BE00F4809E00F4807E00F4805E079
:40094000034803E00E4801E0A420C0037047C04606005200010000F0090000A0040000F0050000F0030000F00100520002005200030052000100500002005000050052000A
:40098000FF00520070B5124B1A683123D35C002B04D1C421FF310F4800F08CFE0C4B1D682C00B423EB582A6A944663441B68002B0BDB094B1868FFF787FF6B6801229A606E
:4009C00063689B68002BFBD100E0044870BDC04610080008482A0010E80700080200500010B50D4B1861002805D002230370FD33437000234380094B1B6850229A5C002A8B
:400A000008D051229B5C002B04D04F3A0449002000F092FC10BDC046E8070008100800086101000810B502481430FFF7D9FF10BDE8070008F8B54F464646C0B406000D0073
:400A40001400002800D16FE1002A00D16EE1072903D94521B84800F02DFE2368012B03D94621B54800F026FE0F2362689A4303D04721B14800F01EFE237A1F22934303D097
:400A80004821AD4800F016FEE368032B03D94921A94800F00FFE2369012B03D94A21A64800F008FE6369012B03D94B21A24800F001FEA369012B03D94C219F4800F0FAFDDC
:400AC000E369032B03D94D219B4800F0F3FD236A012B03D94E21984800F0ECFD636A012B03D94F21944800F0E5FDA36A012B03D95021914800F0DEFDE36A032B03D95121CC
:400B00008D4800F0D7FD236B072B03D952218A4800F0D0FD2768072D03D98849884800F0C9FD012F04D9CA218900854800F0C2FD002F03D10123AB40736002E00123AB40B5
:400B4000B3606768072D04D9F12189007C4800F0B1FD0F233A009A4303D07A49784800F0A9FDA900784B1A687D23D35C9B191A6890460F2291468A404046904302004846CC
:400B800007408F4017431F60277A072D04D9A22189006B4800F08EFD1F233A009A4303D06A49674800F086FD674B1A689369F31ADB0952691B01D318032D0AD81968E800BB
:400BC0001F22824091431F22174087400F431F600AE02A1F5968D2001F20904081431F20074097400F435F60E768082D04D9DD21C900534800F05EFD032F03D95449504896
:400C000000F058FD6900504B1A687C23D35C9B191A689046032291468A40404690430200484607408F4017431F602769082D03D94849434800F03EFD012F03D94649404866
:400C400000F038FDB36901221100A9408B431740AF401F43B76163699846072D03D93F49374800F027FD4346012B03D93C49344800F020FD34487E230268D35C9B191A6828
:400C800001273900A9408C468A43110042463A40AA400A431A606B0010229046984403210B00424693406246134399467F2203689A5C9446B44463461A684B469A43A36958
:400CC0003B40AB401A43E3691940434699400A4363461A6002688023D35CF6183368FF22944693431800236A1F40636A5A00022313403B43A26A9100042739400B431F0035
:400D0000E36AD900182319403B000B43226B520161460A401343AD00FE2292001540AB4003433360002002E00E4800E00D480CBC90469946F8BDC046882A00102703000020
:400D4000C82A0010C50300001008000889020000E9060000690600006A060000030400000404000001005A0070B505000C0000285DD000295DD0FF230A689A4303D09921E7
:400D80002D4800F097FCFF2322699A4303D09A21294800F08FFCA3685B0D03D09B21264800F088FC63685B0A03D09C21224800F081FCE3695B0F03D09D211F4800F07AFCA8
:400DC000236A5B0F03D09E211B4800F073FC1B4A11688B69EB1ADB0949691B01CB18216829607D211068415C6918E06808607E211068415C6918206908607F211068415C6B
:400E00006918606908607C211068415C6918A06808606168A961116880228A5CAD18A2692A60E2691A60226A5A60002002E0044800E0034870BDC046882A00101008000896
:400E400001005A0070B504000D000A4B1A68B423D3581B181B68002B0ADA0B0C03D00649064800F027FC2D042D0C6560002000E0034870BD10080008D5020000082B0010C8
:400E800001008A0070B505000C000368002B01DA002300E0084B002B0BD1EA60230C03D00649074800F006FC2404240CAC60002000E0014870BDC04601008A00BB0200009F
:400EC000082B001070B505000C1E03D19921084800F0F0FB074B1A68B423D3585B191B68002B03DAEB682360002000E0024870BD482B00101008000801008A0070B5040029
:400F00000D00234B1A683123D35C834236D9002936D00B68DB0635D13123D35C984204D3C421FF311B4800F0C5FB194B1B681A6AB0215B5A5C431419174E34602B68DA084D
:400F40000021686800F0EDFF00212000FFF77AFF3468002D03D111490E4800F0ABFB2A0000212000FFF78EFF00280DD10A4B18680021FFF767FF002808D108E0084806E0AC
:400F8000074804E0064802E0064800E0054870BD10080008082B0010000800089303000003018A0001018A0010B50400002A17D1002915D1124B1A683123D35C984204D306
:400FC000C421FF310F4800F075FB0D4B1B681A6AB0215B5A5C4314190B4B1C6000200EE0002A09D0002909D0074B59609A60191D2000FFF783FF02E0044800E0034810BD96
:4010000010080008082B00100008000803018A00F0B583B00D001C4B1B68DC68236883422DD947097B01C01A012383401E00002903D100F0FEFB019001E000230193124B2F
:4010400018680368002B01DA002300E00F4B002B0ED16368BF00DF193B68334203D0B3433B60002400E00A4C0021FFF7EBFE00E0084C002D04D1019800F0DFFB00E0064CF5
:40108000200003B0F0BDC0460008000801008A00020188000301880004018A000A4B1B68DA68136883420BD943095901401A0121814052689B009B580B4203D0034802E0B3
:4010C000034800E003487047000800080101880004018A0000018800034B1B68002B01D1014B18607047C0460C080008F0B5474680B404000F0090461E002D4B1B68002B13
:4011000003D1B5212B4800F0D5FA294B1B682C2060431C18FF22150035402560330A13406360360CA660244B1A683123D35C9D4204D3C421FF31214800F0BCFA1E4B1A68B5
:40114000B023D35A6B43116A8C466344236166683223D35C9E4204D3E021FF31174800F0A9FA154B1B681D6A80367601AD196561A668330C04D0FF214900104800F09AFA94
:40118000330C03D00E490D4800F094FA3604330C1E43AE604346E36127620023A361069B002B02D000229B5EA38104BC9046F0BD0C080008882B001010080008082B00102C
:4011C000FF010000F0B58FB0041E03D15221294800F070FA6368032B03D95421254800F069FAE36A002B03D15821224800F062FA236B002B03D159211E4800F05BFA07AAEF
:401200001300210061C961C321C921C302AD290023001433C1CBC1C141CB41C10821535E0CAE3380144B1B6836215B5E07998C466344B370089B0D930B9B0A980096A26A5E
:40124000E16AFFF753FF2B69E868002200920021FFF74CFF216B300000F0BEF90023F25E002A05DB1F231A401E3B9340034A13600FB0F0BD882B00101008000800E100E069
:40128000F8B505000F0016001C00002A03D1FD21224800F00FFA224B1B68002B03D1FE211E4800F007FA1E4B1B682C2128004843181879435918012213004D68AB401B0419
:4012C0004568AA4015000269002A20D08F69002F1FD11268002A01DA002200E0114A002A19D132681204120C134333600369DE6001238B614C6204692B0C03D00A490B487A
:4013000000F0D8F92A04120CA260002004E0084802E0084800E00748F8BDC046882B00100C08000801008A00BB020000082B001004028A0007028A0070B504000D00160055
:401340000F4B1B68002B04D1AF2149000D4800F0B1F90B4B1B682C2060431C18236A002B04D1B1214900074800F0A4F9E369B34204D9236AB6009D51002000E0024870BD42
:401380000C080008882B00100A028A0070B582B0040000230193002804D1D221FF312D4800F088F92369002B04D1E9214900294800F080F96369002B04D1D421FF31254889
:4013C00000F078F9236A002B04D1EA214900214800F070F96269D5682B0C24D01B041360136820691C4B1A68B423D358C3181B68002B18DA01A9FFF765FD00280ED1019818
:4014000003681E0CFF221340E269934207D29B00226AD358002B02D0984700E0002631002069FFF70FFD2D042D0C0FD063691D601B68636A002B03D098470023636203E030
:40144000A36A002B00D098470023A36163691B6802B070BD882B00101008000810B50400084B1B68002B04D1B221FF31064800F021F9044B1B682C2060431818FFF786FFE7
:4014800010BDC0460C080008882B001010B50400094B1B689B6CC340DB0703D4BE21074800F008F9044B1B681B691034A402E3580F20184010BDC04610080008C82B001000
:4014C000134B1A683C23D35C83421DD9042904D94B1EFF3B9BB2132B18D8FF290CD91F2319400C4A0300C0339B009950D03080000423835000200AE007231940D03080009C
:40150000044BC150002002E0034800E002487047100800080000264001004A0070B505000C001A4B1B6828229A5C012A15D1820807211000884327D19200AD1AED00FF20F3
:40154000A8401B6820339A181168AC4023004B40184004004C40146016E03A229B5EDBB2994203D176210A4800F0A4F8074B1B681B68072215408022120615438022920173
:4015800094466444A400E55070BDC04610080008082C001070B504000D000B4B9A680B4B9A420CD1002904D13821FF31084800F081F81034054BA400E058E55003E0103490
:4015C000A400044BE05870BD00ED00E000000008082C001000000010F0B5474680B482B0061E01914AD04368032B03D93221264800F060F80023F05E002804DBB178FFF7AD
:401600008DFF002400E0214C0023F15E7368002912DB88081E4FC0308000C55903221140C900FC3290468A4095439A01434613408B402B43C35116E089B20F220A40083A28
:4016400092080632920013481018476803221140C900FF252A008A4097439A012B0013408B403B4343600B4B9A680B4B9A4206D10023F05E0199FFF78DFF00E0034C200061
:4016800002B004BC9046F0BD082C00100100560000E100E000ED00E00000000810B5034B1B78584300F0BCF810BDC046D400000801BEFEE770B50D00044C182201002000EF
:4016C00000F037FCA5610020FFF7F2FF00060008054B802212069A649B6C002B01DB002000E002487047C0460000274003004600054B8022120198585B68FF221A4202D0D8
:401700008023DB021843704700002640FEE7C04610B50A4B0268DA6142681A6282685A62C2689A620269DA6242691A6382695A63C2699A63FFF7EAFF10BDC04600060008B6
:40174000F0B5474680B4002801D0192300E064238B429B415B42304D2C682268A826A45BA41822680327BA433B401A4322602C682268A45BA2181668284CA0462640166067
:401780002C682668AA229446A25A96193268BA43134333602A6813686546525BD3181A68444614401C60002805D010291BD921291BD8012024E0184B1B6855229A5C914258
:4017C00015D956229A5C914213D957229A5C914211D958229A5C91420FD959229B5C99420DD804200CE000200AE0022008E0002006E0012004E0022002E0032000E00520EA
:40180000054A1268526813680F218B430343136004BC9046F0BDC04610080008FFFCFFFF0230800803D001300238FCD1C046C0467047EFF3108072B6704780F310887047F6
:4018400010B5B0235B059B899BB2002B04D0B0235B059B899BB201E080235B0080225200934215D1184C23681968683A9B58C9180B680F208343963A13430B6021680C68F2
:401880009C23CB58E318196881430A431A6019E00D4C2368196898229B58C918B02040050A4BC2580A4B13400A681343C022920013430B60226811689C23D358CB18054A0B
:4018C00082581A6010BDC0461008000848180000FFFCFFFF4418000030B5B0235B059B899BB2002B04D0B0235B059B899BB201E080235B0080225200934215D1184C236843
:401900001968683A9B58C9180B680F208343953A13430B6021680C689C23CB58E318196881430A431A6019E00D4D2B68196898229B58C918B0246405C12040012258094BB0
:4019400013400A681343C022920013430B602A6811689C23D358CB1822581A6030BDC04610080008FFFCFFFFB0235B059B899BB2002B04D0B0235B059B899BB201E0802374
:401980005B008022520093420DD1104B1B681A6898215B58D21811680D4B0B40C021C9010B43136011E0094B1B68196898229B58C918084BB0225205D258074B13400A6853
:4019C0001343C022920013430B60704710080008FF8FFFFF18180000FFFCFFFF30B5B0235B059B899BB2002B04D0B0235B059B899BB201E080235B008022520093420DD11E
:401A0000134B1B681A6898215B58D2181168114B0B408021C9010B43136018E00C4D2B68196898229B58C918B02464050A4822580A4B13400A681343C022920013430B6000
:401A40002A6811689C23D358CB1822581A6030BD10080008FF8FFFFF4C180000FFFCFFFF10B5B0235B059B899BB2002B04D0B0235B059B899BB201E080235B0080225200C5
:401A8000934217D10020FFF701FDB0235B055B78002B04D0B0235B055B78DBB200E02123222B03D8002803D1013004E0012002E0002000E0012010BDF8B50700012803D9B6
:401AC0003D493E48FFF7F6FDB0235B055B78002B04D0B0235B055B78DBB200E021239DB2B0235B059B899BB2002B04D0B0235B059E89B6B201E0802676000020FFF7C6FCAC
:401B0000002814D180235B009E4212D1222D12D82B4B1B685C682B4821582B4B19403B068022520413400B432350002404E0274C02E0264C00E0254C80235B009E4201D109
:401B4000222D03D880235B009E4232D01C4B1A683123D35C002B04D1C421FF311C48FFF7A9FD174B1B681D6A80235B009E4203D1002F05D0174A06E0002F03D0164A02E02D
:401B8000164A00E0164A01212800FFF77BF900280FD10B4B1A68B423D3585B191B68002BF7DBEB681B0E1B06A0221206934200D100242000F8BDC0464C0A00004C2C001001
:401BC0001008000818F00000FFFFFFFE04004200482A0010010100300300000C010000300100000CF8B50500012804D9822109012948FFF75FFDFFF733FF002849D0FFF7F4
:401C000018FE0700002D11D10021244B244AD150E823DB00B0225205D65CF6B20120FFF74BFF041E19D1FFF70BFE16E0B02252051C4BD0581A4B194958501B49565CF6B229
:401C40001A481A581F218A4314390A431A500320FFF724FDFFF7C2FE0024002C15D11049124A8B581F20834306401E438E50002D02D1FFF779FE08E00720FFF70FFDFFF7C3
:401C80002BFE0020FFF718FF04003800FFF7D5FD00E0074C2000F8BD4C2C0010307F00000000264010180000410700001CFF000003004200042805D10B4A116804230B4310
:401CC00013600FE0094B1A681168A023D358CB180006C022920410401860034A136804218B4313607047C04610E000E010080008F0B54F464646C0B483B006000D0000922F
:401D00001F00012B03D95B212B48FFF7D3FC330B03D05C212848FFF7CDFC284B1A686E23D35A9B08013B264A13432A009A4301D16B0003D45D212048FFF7BCFC32006A4028
:401D4000F0231B011A40141E2FD1FFF772FD01901A4B18686C23C15A83689C4661446E23C35A9A08013A2A40920090466A22825A15402D0A5D432A00424455182A68920A75
:401D80009202FF231E40009B002B01D00134FF3426437F0280239B001F403E4316432E600198FFF74AFD002000E0064803B00CBC90469946F0BDC0468C2C00101008000832
:401DC000000F00400100CE000749C02252008B589B009B088020C00503438B508B588020000603438B50704700002640014B18607047C04610080008002243088B4274D3B1
:401E000003098B425FD3030A8B4244D3030B8B4228D3030C8B420DD3FF22090212BA030C8B4202D31212090265D0030B8B4219D300E0090AC30B8B4201D3CB03C01A5241A3
:401E4000830B8B4201D38B03C01A5241430B8B4201D34B03C01A5241030B8B4201D30B03C01A5241C30A8B4201D3CB02C01A5241830A8B4201D38B02C01A5241430A8B427A
:401E800001D34B02C01A5241030A8B4201D30B02C01A5241CDD2C3098B4201D3CB01C01A524183098B4201D38B01C01A524143098B4201D34B01C01A524103098B4201D3AE
:401EC0000B01C01A5241C3088B4201D3CB00C01A524183088B4201D38B00C01A524143088B4201D34B00C01A5241411A00D20146524110467047FFE701B5002000F006F83F
:401F000002BDC0460029F7D076E770477047C046002310B59A4203D0CC5CC4540133F9E710BD03008218934202D019700133FAE77047030030B5002A0DD00C7801335D1EA8
:401F4000013A2C700131002CF5D19A189A4202D01C700133FAE730BDF8B5C046F8BC08BC9E467047F8B5C046F8BC08BC9E46704703000000010000000100000000000000E7
:401F800005036000040000000100000000000000010000000604600008000000C8070008B101001073797374656D5F70736F63365F636D30706C75732E6300000020344071
:401FC0007400802034407400002234407400802234407400002434407400802434407400002634407400802634407400002834407400802834407400002A34407400802AC1
:402000003440740000213440182100109000000000233440A82100109000000000253440382200109000000000273440C822001090000000002934405823001090000000DA
:40204000002B3440E82300109000000000603440782400107C00000080603440F42400107C00000000613440702500107C00000080613440EC2500107C0000000062344064
:40208000682600107C00000080623440E42600107C00000000633440602700107C00000080633440DC2700107C00000000643440582800107C00000080643440D428001002
:4020C0007C00000000653440502900107C00000080653440CC2900107C000000BAC0DC04E301EC0C00011001032234400171344002783440200000000000000000000000D7
:40210000000066000000000000000000000000000000000000030000000000000000000000000004FFFFFFFFFFFFFFFFFFFFFFFFFFFFFFFFFFFFFFFFFF000000FFFFFFFF4B
:40214000FFFFFFFFFFFFFFFFFFFFFFFFFFFFFFFFFF000000000000000000000000000000070600000000000000000060FFFFFFFFFFFFFFFFFFFFFBFF11111111111111118B
:4021800011111111111111111111111111111111111111111111111111111111101111111111111111110111000004000000000000000000FFFFF34FFFFFFFFFFFFFFFFF4C
:4021C000FFFFFFFFF7FFFFFFF6000000FFFFFFFFFFFFFFFFFFFFFFFFFFFFFFFFFFFFFFFFFF00000000001F000000001F00000000000000000000000000000000FFFFFFFFD4
:40220000FFFFFFFFFFFFFFFF11111111111111111111111111110111111111111111111113111111111111181111111111111191111011101111111100000260000000009D
:4022400000020000FFFFFFFFFFFFFFFFFFFFFFFFFFFFFFFFFFFFFFFFF2000000FFFFFFFFFFFFFFFFFFFFFFFFFFFFFFFFFFFFFFFFFF0000000E1F0700061F001F0D00001FEF
:40228000001F1F000000F00000000000FFFFFFDFFFFFFFFFFFFFB3FF111111C111111111111111111111111D11111111111111111111111111111111111111111111111104
:4022C0001111011111111111008080000000000000000004FFFFFF60FFFFFFFFFFFFFFFFFFFFFFFFFFFFFFFFFF000000FFFFFFFFFFFFFFFFFFFFFFFFFFFFFFFFFFFFFFFF2A
:40230000FF000000001F0706001F001F0006001F08001F0000000F0F000000F0FFFFFFFFFFFFFFFFFFFFFBFF11111111111101111111111111111111111111111111111162
:40234000111111111111111111111111101111111111011111111011200498920000000000000000FFFFFFFFFFFFFFFFFFFFFFFFFFFFFFFFFFFFFFFFFF000000FFFFFFFFA2
:40238000FFFFFFFFFFFFFFFFFFFFFFFFFFFFFFFFFF0000001F001F1F1F1F001F071F00001F1F0C1F0000F000000F0000FFDFFFFFFFFFFFFFFFFEDF6F11111111111111113B
:4023C00011111111111111111111111111111111111111111111111111111111111111111111111111111111000002900000000000000000FFFF7FF76766FFFFF6FFFFFF71
:40240000FFFFF7771FFFFFFF7F000000FFFFFFFFFFFFFFFFFFFFFFFFFFFFFFFFFFFFFFFFFF000000061F001F001F001F000000001F07001F0006000000000000FFFFFFFFE1
:40244000FFFFFFFFFFFFFFFF11111B11111111111111111111111111111111111111111111111111111111111111111113111811E11291E11297E162000000000000000058
:402480001F1F1F1F1F1F1F1F1F1F1F1F1F1F1F1F1F1F1F1F1F1F1F1F1F1F1F1F1F1F1F1F000000000000000000000000000000000000000000000000FFFFFFFFFFFFFFFF44
:4024C000FFFFFFFF11111111111111111111111111111111111111111111111111111111111111111111111111111111111111111111111100000000000000001F1F1F1F34
:402500001F1F1F1F1F1F1F1F1F1F1F1F1F1F1F1F1F1F1F1F1F1F1F1F1F1F1F1F00001F000000000F00000000000000000000000000000000BFFFFFFFFFFFFFFFFFFFFFFF55
:4025400011111111111111111111111111111111111111111111111111111111111111111111111111111111111111111111111100000000000000201F1F1F1F1F1F1F1F13
:402580001F1F1F0C1F1F1F1F1F1F1F1F1F1F1F1F171F1F141F1F1F1F001F00001F0F000F1F0000060C0000000500000000700000FFFFFFFFFFFFFFFFFFFFBFFF1111111060
:4025C0001711111111111111111111111111111111111111111111D11111111111E111181111111111D11111EEB1111100000800000000001F1F1F1F1F1F1F1F1F1F1F1F99
:402600001F1F1F1F1F1F1F1F1F1F1F1F1F1F1F1F1F0D1F1F000E0000000F001F0000000000000E0000000707007000F0FFFFFFFFFFFFFFFFFFFFFFFF11111110D11111114D
:40264000111111111111111111111111111111111111111111D111111111111D11111111111111F0E1C111F100000000000000001F1F1F1F1F1F1F1F1F1F1F1F1F1F1F1FB7
:402680001F1F1F1F1F1F1F1F1F1F1F1F1F1F1F1F0E000E1F1F0F001F1F0000001F0F1F000000F000000F0000FFFFFFFFFFFFFEFDF7FFBFFF111111111111111111111111C2
:4026C000111111111111111111111111111111111111111111111111F111111E111111D1111D11E100000000000000041F1F1F1F1F1F1F0C1F1F1F1F1F1F1F1F1F1F1F0FA0
:402700001F1F1F1F1F1F1F1F1F1F1F1F001F000000070007000006071F00071F005F004000000000FFFFFFFFFFFFFFFFFFEFFFFE111111D111111111111111111111111154
:402740001111111111111111101111110111111111011111E6111111111ED1E0D119111E00000000000000001F1F1F1F1F1F1F1F1F1F1F1F1F1F1F1F1F1F1F1F1F1F1F1F2C
:402780001F1F1F1F1F1F1F1F000000000000000000000000001F000000000000000000F0FFFFFFFFFFFFFFFFFFFFFFFF1111111111111111111111111111111111111111CA
:4027C000111111111111111111111D1111111111111111111111E1111111111100000000000000001F1F1F1F1F1F1F1F071F1F1F1F1F1F0D1F1F1F1F1F1F1F171F1F1F1FEF
:402800001F1F1F1F00000F000000001F00000000000000000000000000000000FFFFFFFFFFFFFFFFFFFFFFFF1111111111111111111111111711111111111111111111115C
:402840001111111111111F11111111E111111111111111111111010100000000000040061F1F1F1F1F1F1F1F1F1F1F1F1F1F1F1F1F1F1F1F1F1F1F1F170F1F1F1F1F1F1FF4
:402880001F051F060000001F000000000A06040D0000000000000000FFFFFFFFFFFFDFFFBFDFFB5F11111111111111111111111111111111111111111111111111111111E3
:4028C000711111111111171111111111110111111011111100002000000000101F1F1F1F1F1F1F1F1F1F1F1F1F1F1F1F1F1F1F1F1F1F1F1F1F1F1F1F1F1F1F1F001F001FE1
:40290000001F000C001F0D1F1F001F0000005F0F00000060FFFFFFFFFFFFFFFFFFFFF7FE11111111E11111111111111111111111111111111111111111111111111111113A
:40294000D111111110D1111111111EE1111DE1EE00000000000000001F1F1F1F1F1F1F1F1F1F1F1F1F1F1F1F1F1F1F1F1F1F1F1F1F1F1F1F1F1F1F1F1F00000F0800000F0D
:40298000000E00000F00000F0000700000070000FFFFFFFFFFFFFFFFFFFEFFFF11111111111111111111111111111111111111111111111111111115111111111111111119
:4029C00011111111111111F1111F111100000000000000501F1F1F1F1F1F1F1F1F1F1F1F1F1F1F1F1F1F1F1F1F1F1F1F1F1F1F1F1F1F1F1F1F0700000000000000000000C7
:402A0000061F0C070000000000000000FFFFFFFFFFFFFFFFFFFFFBBE1111111111111111111111111111111111111111111111111111111111111111111111111111111107
:402A4000111111111111111147656E6572617465645F536F757263655C50536F43365C70646C5C647269766572732F7065726970686572616C2F6970632F63795F69706325
:402A80005F6472762E68000047656E6572617465645F536F757263655C50536F43365C70646C5C647269766572735C7065726970686572616C5C6770696F5C63795F677097
:402AC000696F2E630000000047656E6572617465645F536F757263655C50536F43365C70646C5C647269766572735C7065726970686572616C5C6770696F5C63795F67702F
:402B0000696F2E680000000047656E6572617465645F536F757263655C50536F43365C70646C5C647269766572735C7065726970686572616C5C6970635C63795F697063F7
:402B40005F6472762E68000047656E6572617465645F536F757263655C50536F43365C70646C5C647269766572735C7065726970686572616C5C6970635C63795F697063E4
:402B80005F6472762E63000047656E6572617465645F536F757263655C50536F43365C70646C5C647269766572735C7065726970686572616C5C6970635C63795F697063A9
:402BC0005F706970652E630047656E6572617465645F536F757263655C50536F43365C70646C5C647269766572735C7065726970686572616C5C70726F745C63795F7072D8
:402C00006F742E630000000047656E6572617465645F536F757263655C50536F43365C70646C5C647269766572735C7065726970686572616C5C737973696E745C63795FBE
:402C4000737973696E742E630000000047656E6572617465645F536F757263655C50536F43365C70646C5C647269766572735C7065726970686572616C5C737973706D5C60
:402C800063795F737973706D2E63000047656E6572617465645F536F757263655C50536F43365C70646C5C647269766572735C7065726970686572616C5C747269676D7553
:402CC000785C63795F747269676D75782E6300000000204000002440000000400000000000002340000030400000314000009F40000022400000104002020202020202023B
:402D00000210101D800017007500FF030602063604102000000000007FC0000000040000000000000019324B647D00804000080B100000000000FF012002001F008000046C
:402D4000FF081018001000140018001C4044484C50000000081000000800000004000000041000000012000004210000002100000016000040114002C41300138013A013FB
:402D8000200000001C0000000000214000002540000001400000344000002440000031400000324000001F410000234000001140010101010101010101101010800019002F
:402DC0005500F0000501053B04101C01010000000FC000000004000001010101011D3A57789600082000101208000000001F00000010000F002000023F06080E0008000964
:402E0000000A000B24282C3034000000100000009000000088000000080000008000000004F0000000F00000400200002005A000D00100018001A0012000000010000000E2
:402E4000000000000000001000000008C0000000642E0010C0000008400500003C060008D80100000048E80100127A0000093D0000093D0000093D0004000000A00F000066
:402E80000000D007E9000010C10000100000000010B50004400B27D0144B1A68146AB023D15ACA00531AE3181B68002BF4DA3E220F4B1A600F4A104B1A60104B0621A322B2
:402EC000D20099500E4A98509B58084B1A68106AB023D15ACA00531AC31800225A60084B064AD358002BFADA10BDC04610080008040126401E1F000008012640000026406C
:402F00001C05000010B54378FF2B20D100F01AFA04000F4B1A683123D35C042B04D8C421FF310C4800F036FA094B1A68116AB023D35A9B00CB18DB685A68116801230B431B
:402F400013601368DB07FCD4200000F013FA10BD10080008482A0010F0B585B001900291544B1A683123D35C002B04D1C421FF31514800F00FFA4F4B1B681E6AB4229A586F
:402F8000971950229B5C002B77D000F0C3F9050003283CD1474B1A683123D35C062B04D8C421FF31444800F0F5F9424B1968B023CB5A5A00D21853000A6A94466344B42212
:402FC0008A58D3181B68002B23DB002000F0C2F93A4B98421FD03A4B1A6900230021012000F0A8F9002803D0364C17E0013400E00024002000F0AEF9304B984202D0324B39
:403000009C42F3D9304B9C4207D92E4C06E0002404E02C4C02E02B4C00E00024002C46D100F090F90390294B294AD358002B13DA234A0121300000F095F900280ED1029819
:40304000FFF726FF019B002B0AD03B68002BFCDB00F068F9040004E01A4C02E0194C00E01C4C032D05D10121002000F08BF90028F9D1039800F07EF919E000F063F90500C7
:403080000F4A0121300000F06DF9002809D1019B002B08D03B68002BFCDB00F043F9040002E0084C00E00B4C280000F063F9200005B0F0BD10080008482A0010010188000A
:4030C000E807000805005200EF4902001C0500000000264001005000F0B54F464646C0B4824B1A685468B0235B055B78002B04D0B0235B055B78DBB200E02123212B67D1EB
:40310000B023D15ACB005B1A116A8C46634419680029F5DADD6802212943D960B023D15ACB005B1A116A8C466344D968C9073ED5D9680904090C8C4684271168D559A8460C
:4031400041440968090A0904FF26360431400D0088261168894691598846C14449460968090A0906294365462943D9601168D359C9180A685E4B98461A4090252D012A43A2
:403180000A605A4B99461A6813689C46925962441368414619400B002B4313604B461A681568D15969180B689359EB181B684F4B1A68B021555AEB005B1B156AAC46634435
:4031C00000255D60156A515ACA00531AEB185B68484A116904230B431361012801D030BF00E020BF414B1A68B023D15ACB005B1A116A8C46634419680029F3DAB021490553
:403200004978002904D0B02149054978C9B200E02121212932D1D968C90722D510688421525880180468324A1440DB681B0C1B02FF2109020B40234303602C4B19688823FA
:40324000C8580B689C46604403681A400D6AB023CC5AE1000B1BEB18DB681B0E1B021A430260224B1A68106AB023D15ACA00531AC318DA6802218A43DA6028E086235B00BD
:40328000E358002B23D11C4807681C4BA321C9005E581B4A904615681A4A0260062058503E21424611600631174A9950164B134AD358002BFADA154A86235B00E2500E4B3C
:4032C0001F60A323DB000D4AD6500D4B1D60074B1A68106AB023D15ACA00531AC31800225A600CBC90469946F0BDC04610080008FF00FFFF00ED00E0080126400000264033
:40330000040126401E1F00001C050000AAAAAAAA0000000001B40248844601BC604700BF3504001001B40248844601BC604700BF8509001001B40248844601BC604700BF71
:403340008112001001B40248844601BC604700BF3318001001B40248844601BC604700BF9D10001001B40248844601BC604700BF850E001001B40248844601BC604700BF3F
:403380003B18001001B40248844601BC604700BF1110001001B40248844601BC604700BFB516001000000000000000000000000000000000000000000000000000000000C6
:4033C00000000000000000000000000000000000000000000000000000000000000000000000000000000000000000000000000000000000000000000000000000000000CD
:0200000490303A
:02000000951B4E
:0200000490501A
:0C0000000005E20721002100E216B61BFB
:00000001FF